:100000000200CBE5836003E49322A882E622E58325
:100010006004E4938003A882E6F822E5836004E4A8
:10002000938003A882E6F922E5836004E4938003C9
:10003000A882E6FA22E5836004E4938003A882E6BE
:10004000FB22E5836004E4938003A882E6FC22E5BA
:10005000836004E4938003A882E6FD22E5836004C4
:10006000E4938003A882E6FE22E5836004E49380A3
:1000700003A882E6FF22898288838B00EC4D6036DC
:10008000E4E0F608A31DBDFFF31C80F0B800118B5F
:1000900000EC4D6021E7F609081DBDFFF41C80F15E
:1000A000898288838B00EC4D600CE493F608A31DD5
:1000B000BDFFF31C80F022E4F5D075813D78207AF5
:0E00C0001DF608DAFC1203410200000200B730
:10010000ACA9B2C0AEB2ABA9AA00B0A0A2A5AC0087
:1001100020008051E4F520F5218C248D258033E4E6
:10012000F522F523E52324FBE52234FF500280026B
:10013000800280160523E52370020522E52324FBB7
:10014000E52234FF5002800280EA0521E521700299
:100150000520E524B52007E525B5210280065002DB
:10016000800280BB2280AD80098D8075A00175A0C2
:10017000002280F5800A85058075A00375A0022203
:1001800080F480547534007535017536108C378DC8
:10019000387DC012016780020534E5342538F582C8
:1001A000E43537F58312000370EE753200801DE5EB
:1001B000322538F582E43537F583120003FD7C00E3
:1001C000120174AC35AD361201740532E532C395B7
:1001D000344002800280D82280AA02033E75320099
:1001E0008A398B3A8C3B8D3C80020532E532253CC6
:1001F000F582E4353BF58312000370EEE4F535F546
:10020000360202B5A9327800E8B53506E9B53602FE
:100210008004500480008045AD3A120167E4F53354
:10022000F534801DE534253CF582E533353BF58317
:10023000120003FD7C001201740534E534700205E0
:1002400033E5362401FDE5353400FCECB53306ED2D
:10025000B5340280065002800280C98044AD3A1253
:100260000167E4F533F534801DE534253CF582E57E
:1002700033353BF583120003FD7C00120174053415
:10028000E53470020533A9327800E8B53306E9B5E4
:10029000340280065002800280CF7C017D10120162
:1002A00074E53A24FFF53AE53934FFF5390536E5CA
:1002B0003670020535E536B41407E535B400028022
:1002C00003020204753700853238805A7D8012019E
:1002D00067A9327800E9C39538F534E89537F533E6
:1002E000801DE534253CF582E533353BF58312006E
:1002F00003FD7C001201740534E53470020533A956
:10030000327800E8B53306E9B53402800650028041
:100310000280CF7C017D10120174E53824FFF5388E
:10032000E53734FFF537E538B4FF07E537B4FF02AA
:1003300080028098753900753A930201FC2202010F
:10034000DD8039780179007A007B207D0A7C0012FB
:10035000008C7801790A7A007B2A7D067C001200E5
:100360008C7530007531937C007D2A120182AA3091
:0E037000AB317C007D201201DA80FE2280C5B8
:00000001FF
