:100000000200D7E4F5F0F8F9EA4B6043EC4D7013C9
:1000100022EAC39C40137004EB9D400DEDC333FDF9
:10002000EC33FC05F0EC30E7E8EAC39C40067007CF
:10003000EB9D5003C38008C3EB9DFBEA9CFAD3E918
:1000400033F9E833F8ECC313FCED13FDD5F0DA8B8C
:10005000058A048802890322C000C001120003D06F
:1000600001D00022C000C001120003D001D0008CDA
:10007000028D0322EA30E707E4C39BFBE49AFAEC23
:1000800030E707E4C39DFDE49CFC22120093AA0420
:10009000AB0522C000C001EC6A33EA13C0E01200D5
:1000A00074120003D0E0C0E030E707E4C39BFBE438
:1000B0009AFAD0E030E607E4C39DFDE49CFCD00151
:1000C000D00022E4F5D075813F78207A1FF608DA57
:0A00D000FC1202DC0200000200C373
:10010000ACA9B2C0AEB2ABA9AA00B0A0A2A5AC0087
:1001100020008051E4F539F53A8C3D8D3E8033E482
:10012000F53BF53CE53C24FBE53B34FF5002800207
:1001300080028016053CE53C7002053BE53C24FB53
:10014000E53B34FF5002800280EA053AE53A70024E
:100150000539E53DB53907E53EB53A02800650025E
:10016000800280BB2280AD80158D8075A00075A0B7
:10017000018D377C007D0112011275A0002280E9FB
:10018000801885058075A00275A0038C378D387C9A
:10019000007D0112011275A0022280E680547532A2
:1001A000007533017534108C358D367DC0120167B2
:1001B00080020532E5322536F582E43535F58312C5
:1001C000030F70EE753000801DE5302536F582E4B2
:1001D0003535F58312030FFD7C00120180AC33AD81
:1001E000341201800530E530C39532400280028030
:1001F000D82280AA0202D97532007533008C348D62
:100200003580020532E5322535F582E43534F58353
:1002100012030F70EE7530000202B57D8012016787
:100220007533FF753100E53124EC50028002800205
:100230008068A9307800E92531FDE83400FCED2420
:10024000ECEC6480347F4002800280097C007D20D9
:100250001201808039AD327C00A9307800E9253167
:10026000F9E83400F8E924ECFBE834FFFA12008BDB
:10027000EB2535F582EA3534F58312030FF536ADFB
:10028000367C00120180E533B4FF0385313305313C
:10029000E53124EC500280028098E53324016002AD
:1002A00080028008E53324C0FD1201677C017D2CAB
:1002B0001201120530E5322414FDE433FCA9307834
:1002C00000C3E99D8CF063F080E8648095F0400203
:1002D000800302021B020215220201F7802F78011F
:1002E00079007A007B207D0A7C00120398780179DE
:1002F0000A7A007B2A7D067C001203987C007D2A06
:1003000012019C7C007D201201F480FE2280CFE54A
:10031000836003E49322A882E622E5836004E493E9
:100320008003A882E6F822E5836004E4938003A8B2
:1003300082E6F922E5836004E4938003A882E6FA6A
:1003400022E5836004E4938003A882E6FB22E58330
:100350006004E4938003A882E6FC22E5836004E461
:10036000938003A882E6FD22E5836004E493800382
:10037000A882E6FE22E5836004E4938003A882E677
:10038000FF22898288838B00EC4D6036E4E0F6081A
:10039000A31DBDFFF31C80F0B800118B00EC4D6075
:1003A00021E7F609081DBDFFF41C80F189828883CE
:1003B0008B00EC4D600CE493F608A31DBDFFF31C0D
:0303C00080F022A8
:00000001FF
