:100000000200FBED850BF0A4F50F85F00EED850ADF
:10001000F0A4250EF50EE5F03400F50DED8509F0A0
:10002000A4250DF50DE5F03400F50CED8508F0A4E0
:10003000250CF50CEC850BF0A4250EF50EE5F0353E
:100040000DF50DE50C3400F50CEC850AF0A4250D3A
:10005000F50DE5F0350CF50CEC8509F0A4250CF553
:100060000CEB850BF0A4250DF50DE5F0350CF50C2A
:10007000EB850AF0A4250CF50CEA850BF0A4250C01
:10008000FAAB0DAC0EAD0F22E5836003E49322A81A
:1000900082E622E5836004E4938003A882E6F822E6
:1000A000E5836004E4938003A882E6F922E5836097
:1000B00004E4938003A882E6FA22E5836004E493D3
:1000C0008003A882E6FB22E5836004E4938003A812
:1000D00082E6FC22E5836004E4938003A882E6FDC7
:1000E00022E5836004E4938003A882E6FE22E58390
:0E00F0006004E4938003A882E6FF220208B8B1
:100100000000000000000000000000013E0154015A
:1001100040015601520150014E015C014C014A015F
:10012000480158014601440142015AFEFDFBF70017
:100130001E1D1B1700546F6F206C6F6E670043000D
:100140003D003900380037003600350034003300F8
:100150003200310030002F002D002B002A00801CBF
:1001600075803875A00175A00075800C75A00175AB
:10017000A00075800175A00175A0002280E2800CAE
:10018000ED4480F58075A00175A0002280F2800901
:100190008D8075A00375A0022280F5800A7580010C
:1001A00075A00175A0002280F4804B8C6E8D6F7D50
:1001B0000012017E8014856E83856F821200D41236
:1001C000018E056FE56F7002056E856E83856F8207
:1001D000120088B400028017E56FC3956FFDE56ECD
:1001E000956EFCED24F6EC6480347F500480008032
:1001F00004800080C12280B3800F8D6B756C008DF0
:100200006D7C007D6B1201A92280EF0202ACE4F547
:100210006EF56DF56CF56B8C6F8D70805C750800FC
:10022000750900750A00750B0AAA6BAB6CAC6DAD55
:100230006E1200038A718B728C738D74856F838547
:10024000708212008824D0FFE434FFFEAB07EEFA80
:100250003395E0F9F8EB2574FBEA3573FAE935726A
:10026000F9E83571F885006B85016C85026D8503B1
:100270006E0570E5707002056F856F838570821260
:10028000008824D04002800F856F83857082120021
:100290008824C650048000800480008080AD6EAC4D
:1002A0006DAB6CAA6B8000D007D00622C006C007D9
:1002B00002020E6B0203687579008A7B8B7CE56B0A
:1002C000456C456D456E70028002800EA97C7730CA
:1002D000E57C2401F876000203678044746FA979F5
:1002E000780029F9750800750900750A00750B0A70
:1002F000AA6BAB6CAC6DAD6E1207C9ED2430F7057F
:1003000079750800750900750A00750B0AAA6BABB0
:100310006CAC6DAD6E1207C18A6B8B6C8C6D8D6E83
:10032000E56B456C456D456E7002800280AE757A56
:1003300000801FA97A7800E9257CF8AB797A00EB78
:10034000C3957AFBEA9400FA746F2B24FFF9E7F661
:10035000057AE57AC395794002800280D6A979783A
:1003600000E9257CF87600220202B76B02044AE419
:10037000F577F576F575F574020426E56E2572FBC2
:10038000E56D3571FAE56C3570F9E56B356FF8851B
:10039000007485017585027685037702043FE56E5A
:1003A000C39572FBE56D9571FAE56C9570F9E56B97
:1003B000956FF885007485017585027685037780D1
:1003C0007E856F0885700985710A85720BAA6BABF3
:1003D0006CAC6DAD6E1200038502748503758504E7
:1003E000768505778059E56F4570457145726002E5
:1003F00080028025856F0885700985710A85720BDA
:10040000AA6BAB6CAC6DAD6E1207C185027485032F
:10041000758504768505778009E4F577F576F575B9
:10042000F574801B8019E57324D66095147003025F
:10043000037B24FE700302039E24FE60A98000ADAE
:1004400077AC76AB75AA7480002202036F0206F9BE
:10045000752000780179007A007B247D0B7C0012E6
:10046000086B752F007801790B7A007B307D207C3A
:100470000012086B7801792B7A007B507D057C0097
:1004800012086B780179307A007B557D057C00126B
:10049000086BE4F55DF55CF55BF55AE4F561F56034
:1004A000F55FF55EE4F565F564F563F56275660084
:1004B00012015E752100E52124FC500280028003B8
:1004C0000206F57455A921780029F987B075220034
:1004D000E52224FC5002800280030206E87450A941
:1004E00022780029F9E7B5900280030206DBE522B5
:1004F00075F004A42521500205F0A8F0A9E0E9C395
:1005000033F9E833F8743029F987830987821200B8
:1005100088F523020651E52F60028006E52060047D
:10052000800080048000802BE52070137C007D24F7
:1005300012020B85025A85035B85045C85055D8587
:100540002366752F0075240012019BAD661201F819
:1005500075200002067EE52F60028006E52060041B
:10056000800080028008E5666004800080048000CE
:10057000806C7C007D2412020B85025E85035F8502
:100580000460850561855A6B855B6C855C6D855D56
:100590006E855E6F855F708560718561728566733B
:1005A00012036C8502628503638504648505658595
:1005B000626B85636C85646D85656E7A007B241241
:1005C00002B412019B7C007D241201A985625A8528
:1005D000635B85645C85655D752F0075200102068F
:1005E0007E752F00752400E4F55DF55CF55BF55A2A
:1005F000E4F561F560F55FF55E7566007520001243
:10060000019B807AE5206009752F00752400752014
:1006100000E52F24F64002800280227424A92F785E
:100620000029F9A723052F7424A92F780029F97729
:100630000012019B7C007D241201A9801012019BF5
:100640007C017D351201A9752F00752400802F8053
:100650002DE52324D6700302051614700302051637
:1006600024FE700302051624FE700302051624F210
:10067000700302055624FA70030205E18086E4F552
:100680006AF569F568F567750800750900750A135C
:10069000750B88AA67AB68AC69AD6A120896400210
:1006A000800280028035E56A2401F56AE56934003C
:1006B000F569E5683400F568E5673400F5677508A5
:1006C00000750900750A13750B88AA67AB68AC69D9
:1006D000AD6A1208964002800280CB0522E52224F2
:1006E000FC500280030204DD0521E52124FC5002B8
:1006F00080030204C30204B322020450E4F8F50CA0
:10070000F50DF50EF50FED4C4B4A70030207B0E501
:10071000084509450A450B703422EAC39508403361
:100720007013EB9509402C700CEC950A4025700570
:10073000ED950B401EE50B250BF50BE50A350AF58B
:100740000AE5093509F509E5083508F50808E50859
:1007500030E7C7E508C39A401A7015E5099B4013B6
:10076000700EE50A9C400C7007E50B9D4005600388
:10077000C38012C3ED950BFDEC950AFCEB9509FBCC
:10078000EA9508FAD3E50F33F50FE50E33F50EE5DC
:100790000D33F50DE50C33F50CE508C313F508E54D
:1007A0000913F509E50A13F50AE50B13F50BD8A3B0
:1007B0008D0B8C0A8B098A08AD0FAC0EAB0DAA0C01
:1007C00022C0001206FCD00022C0001206FCD0009D
:1007D000AD0BAC0AAB09AA0822EA30E70DE4C39DD1
:1007E000FDE49CFCE49BFBE49AFAE50830E715E4A1
:1007F000C3950BF50BE4950AF50AE49509F509E4B0
:100800009508F50822C000C001A908EA6201120794
:10081000D91206FCE930E70DE4C39DFDE49CFCE43D
:100820009BFBE49AFAD001D00022C000C001A902CB
:100830001207D91206FCAD0BAC0AAB09AA0889E075
:1008400030E70DE4C39DFDE49CFCE49BFBE49AFAD5
:10085000D001D00022898288838B00EC4D6036E481
:10086000E0F608A31DBDFFF31C80F0B800118B005B
:10087000EC4D6021E7F609081DBDFFF41C80F189ED
:100880008288838B00EC4D600CE493F608A31DBDB9
:10089000FFF31C80F022C3EA9508600830D218B23A
:1008A000E7D2E022EB9509700AEC950A7005ED9508
:1008B0000B6004D2E092E722E4F5D075817D7820C8
:0C08C0007A5DF608DAFC12044D0200001C
:00000001FF
