:100000000200F980447C007D85AA20AB211201C644
:100010007C007D0A1201968A228B23D281800CE516
:100020002324FFF523E52234FFF522E52324FFE511
:10003000226480347F4002800280E4C281800030EC
:10004000CF02800280F9C2CF2280BA0200E2E4F53A
:1000500024F52575200075213C75CBB175CAE07576
:10006000CDFF75CCFFD2ADD2AF75C80430910C80F6
:1000700000E525452470048000800480008012E59E
:100080002124F6F521E52034FFF52075240075259F
:100090000130800C8000E525452470048000800438
:1000A00080008012E521240AF521E5203400F520A6
:1000B0007524007525012080108000E525B4010914
:1000C000E524B40004800080058000D38001C37261
:1000D00091400280028005E4F524F525120003809A
:1000E0008B2202004EE4F5D075812678207A06F640
:0C00F00008DAFC12004B0200000200E5E0
:100100000014001E003CE4F5F0F8F9EA4B6043EC03
:100110004D701322EAC39C40137004EB9D400DED1B
:10012000C333FDEC33FC05F0EC30E7E8EAC39C4058
:10013000067007EB9D5003C38008C3EB9DFBEA9C50
:10014000FAD3E933F9E833F8ECC313FCED13FDD52A
:10015000F0DA8B058A048802890322C000C00112EC
:100160000106D001D00022C000C001120106D0015A
:10017000D0008C028D0322EA30E707E4C39BFBE446
:100180009AFAEC30E707E4C39DFDE49CFC221201DF
:1001900096AA04AB0522C000C001EC6A33EA13C082
:1001A000E0120177120106D0E0C0E030E707E4C3B7
:1001B0009BFBE49AFAD0E030E607E4C39DFDE49CA3
:1001C000FCD001D00022C000C001ED8BF0A4F8A942
:1001D000F0ED8AF0A429F9EC8BF0A429FAE8FBD021
:0401E00001D0002228
:00000001FF
