:1000000002012180108D998D248000309902800298
:1000100080F9C2992280EE801F53877F5389BF5396
:1000200089EF438920758DFDD28E759800D29BC2D1
:100030009CC29DD29ED29F2280DF02010A752200BF
:10004000752350744C852283852382F07469852240
:1000500083852382A3F07473852283852382A3A3DF
:10006000F07479852283852382A3A3A3F07461852C
:100070002283852382A3A3A3A3F0746E85228385A4
:100080002382A3A3A3A3A3F0E5232406F582E522FC
:100090003400F5837473F0E5232407F582E52234F8
:1000A00000F583746BF0E5232408F582E522340023
:1000B000F5837469F0E5232409F582E5223400F51F
:1000C000837479F0120017E4F520F521E52124F678
:1000D000E5206480347F5002800280028029E5217F
:1000E0002523F582E5203522F583E0FD1200030586
:1000F00021E52170020520E52124F6E52064803405
:100100007F5002800280D780BE2202003DE4F5D0FD
:1001100075812578207A05F608DAFC12003A02008B
:040120000002010DCB
:00000001FF
