:1000000002012102010E758000E4F520F521E521B1
:1000100024C0E5206480347F500280028002801B6F
:100020007580000521E52170020520E52124C0E549
:10003000206480347F5002800280E57520007521A5
:1000400040E5212480E5206480347F5002800280D6
:1000500002801B7580FF0521E52170020520E52146
:100060002480E5206480347F5002800280E5752082
:1000700000752180E521243FE5206480347F500213
:1000800080028002801B8521800521E52170020508
:1000900020E521243FE5206480347F5002800280E7
:1000A000E57520007521C1E52124BFE52064803479
:1000B0007F400280028002801F852180E52124FE8E
:1000C000F521E52034FFF520E52124BFE5206480FB
:1000D000347F4002800280E1E4F520F521E521240F
:1000E000C0E5206480347F500280028002801B754E
:1000F00080000521E52170020520E52124C0E520CE
:100100006480347F5002800280E5020009220200F0
:1001100006E4F5D0758122F520F5211200030200D6
:0401200000020111C7
:00000001FF
